{
  "contractName": "EvidenceManagement",
  "abi": [
    {
      "constant": true,
      "inputs": [
        {
          "name": "",
          "type": "uint256"
        }
      ],
      "name": "evidenceList",
      "outputs": [
        {
          "name": "id",
          "type": "uint256"
        },
        {
          "name": "description",
          "type": "string"
        },
        {
          "name": "owner",
          "type": "address"
        },
        {
          "name": "verified",
          "type": "bool"
        },
        {
          "name": "addedTimestamp",
          "type": "uint256"
        },
        {
          "name": "verifiedTimestamp",
          "type": "uint256"
        }
      ],
      "payable": false,
      "stateMutability": "view",
      "type": "function"
    },
    {
      "constant": true,
      "inputs": [],
      "name": "evidenceCount",
      "outputs": [
        {
          "name": "",
          "type": "uint256"
        }
      ],
      "payable": false,
      "stateMutability": "view",
      "type": "function"
    },
    {
      "constant": true,
      "inputs": [],
      "name": "admin",
      "outputs": [
        {
          "name": "",
          "type": "address"
        }
      ],
      "payable": false,
      "stateMutability": "view",
      "type": "function"
    },
    {
      "inputs": [],
      "payable": false,
      "stateMutability": "nonpayable",
      "type": "constructor"
    },
    {
      "anonymous": false,
      "inputs": [
        {
          "indexed": false,
          "name": "id",
          "type": "uint256"
        },
        {
          "indexed": false,
          "name": "description",
          "type": "string"
        },
        {
          "indexed": false,
          "name": "owner",
          "type": "address"
        },
        {
          "indexed": false,
          "name": "addedTimestamp",
          "type": "uint256"
        }
      ],
      "name": "EvidenceAdded",
      "type": "event"
    },
    {
      "anonymous": false,
      "inputs": [
        {
          "indexed": false,
          "name": "id",
          "type": "uint256"
        },
        {
          "indexed": false,
          "name": "verifiedTimestamp",
          "type": "uint256"
        }
      ],
      "name": "EvidenceVerified",
      "type": "event"
    },
    {
      "constant": false,
      "inputs": [
        {
          "name": "_description",
          "type": "string"
        }
      ],
      "name": "addEvidence",
      "outputs": [],
      "payable": false,
      "stateMutability": "nonpayable",
      "type": "function"
    },
    {
      "constant": false,
      "inputs": [
        {
          "name": "_id",
          "type": "uint256"
        }
      ],
      "name": "verifyEvidence",
      "outputs": [],
      "payable": false,
      "stateMutability": "nonpayable",
      "type": "function"
    },
    {
      "constant": true,
      "inputs": [
        {
          "name": "_id",
          "type": "uint256"
        }
      ],
      "name": "getEvidence",
      "outputs": [
        {
          "name": "",
          "type": "string"
        },
        {
          "name": "",
          "type": "address"
        },
        {
          "name": "",
          "type": "bool"
        },
        {
          "name": "",
          "type": "uint256"
        },
        {
          "name": "",
          "type": "uint256"
        }
      ],
      "payable": false,
      "stateMutability": "view",
      "type": "function"
    },
    {
      "constant": false,
      "inputs": [
        {
          "name": "_id",
          "type": "uint256"
        },
        {
          "name": "_newDescription",
          "type": "string"
        }
      ],
      "name": "updateEvidenceDescription",
      "outputs": [],
      "payable": false,
      "stateMutability": "nonpayable",
      "type": "function"
    },
    {
      "constant": false,
      "inputs": [
        {
          "name": "_id",
          "type": "uint256"
        }
      ],
      "name": "deleteEvidence",
      "outputs": [],
      "payable": false,
      "stateMutability": "nonpayable",
      "type": "function"
    }
  ],
  "bytecode": "0x608060405234801561001057600080fd5b5033600260006101000a81548173ffffffffffffffffffffffffffffffffffffffff021916908373ffffffffffffffffffffffffffffffffffffffff1602179055506110e7806100616000396000f3fe608060405260043610610087576000357c010000000000000000000000000000000000000000000000000000000090048062b31b711461008c57806351a94a5f1461019357806361461f321461025b578063a2ed5af01461032d578063aec33d0c14610358578063c8be743214610393578063c956f143146103ce578063f851a440146104ce575b600080fd5b34801561009857600080fd5b506100c5600480360360208110156100af57600080fd5b8101908080359060200190929190505050610525565b60405180878152602001806020018673ffffffffffffffffffffffffffffffffffffffff1673ffffffffffffffffffffffffffffffffffffffff16815260200185151515158152602001848152602001838152602001828103825287818151815260200191508051906020019080838360005b83811015610153578082015181840152602081019050610138565b50505050905090810190601f1680156101805780820380516001836020036101000a031916815260200191505b5097505050505050505060405180910390f35b34801561019f57600080fd5b50610259600480360360208110156101b657600080fd5b81019080803590602001906401000000008111156101d357600080fd5b8201836020820111156101e557600080fd5b8035906020019184600183028401116401000000008311171561020757600080fd5b91908080601f016020809104026020016040519081016040528093929190818152602001838380828437600081840152601f19601f820116905080830192505050505050509192919290505050610626565b005b34801561026757600080fd5b5061032b6004803603604081101561027e57600080fd5b8101908080359060200190929190803590602001906401000000008111156102a557600080fd5b8201836020820111156102b757600080fd5b803590602001918460018302840111640100000000831117156102d957600080fd5b91908080601f016020809104026020016040519081016040528093929190818152602001838380828437600081840152601f19601f820116905080830192505050505050509192919290505050610820565b005b34801561033957600080fd5b506103426109b3565b6040518082815260200191505060405180910390f35b34801561036457600080fd5b506103916004803603602081101561037b57600080fd5b81019080803590602001909291905050506109b9565b005b34801561039f57600080fd5b506103cc600480360360208110156103b657600080fd5b8101908080359060200190929190505050610bac565b005b3480156103da57600080fd5b50610407600480360360208110156103f157600080fd5b8101908080359060200190929190505050610d9b565b60405180806020018673ffffffffffffffffffffffffffffffffffffffff1673ffffffffffffffffffffffffffffffffffffffff16815260200185151515158152602001848152602001838152602001828103825287818151815260200191508051906020019080838360005b8381101561048f578082015181840152602081019050610474565b50505050905090810190601f1680156104bc5780820380516001836020036101000a031916815260200191505b50965050505050505060405180910390f35b3480156104da57600080fd5b506104e3610f28565b604051808273ffffffffffffffffffffffffffffffffffffffff1673ffffffffffffffffffffffffffffffffffffffff16815260200191505060405180910390f35b6000602052806000526040600020600091509050806000015490806001018054600181600116156101000203166002900480601f0160208091040260200160405190810160405280929190818152602001828054600181600116156101000203166002900480156105d75780601f106105ac576101008083540402835291602001916105d7565b820191906000526020600020905b8154815290600101906020018083116105ba57829003601f168201915b5050505050908060020160009054906101000a900473ffffffffffffffffffffffffffffffffffffffff16908060020160149054906101000a900460ff16908060030154908060040154905086565b60c06040519081016040528060015481526020018281526020013373ffffffffffffffffffffffffffffffffffffffff168152602001600015158152602001428152602001600081525060008060015481526020019081526020016000206000820151816000015560208201518160010190805190602001906106aa929190610f4e565b5060408201518160020160006101000a81548173ffffffffffffffffffffffffffffffffffffffff021916908373ffffffffffffffffffffffffffffffffffffffff16021790555060608201518160020160146101000a81548160ff0219169083151502179055506080820151816003015560a082015181600401559050506001600081548092919060010191905055507f250b2ec63b9d5a125de69324ae4ef152d8217dd9ffdae0d2398951c4e93db5c560015482334260405180858152602001806020018473ffffffffffffffffffffffffffffffffffffffff1673ffffffffffffffffffffffffffffffffffffffff168152602001838152602001828103825285818151815260200191508051906020019080838360005b838110156107e05780820151818401526020810190506107c5565b50505050905090810190601f16801561080d5780820380516001836020036101000a031916815260200191505b509550505050505060405180910390a150565b600260009054906101000a900473ffffffffffffffffffffffffffffffffffffffff1673ffffffffffffffffffffffffffffffffffffffff163373ffffffffffffffffffffffffffffffffffffffff1614151561090b576040517f08c379a00000000000000000000000000000000000000000000000000000000081526004018080602001828103825260228152602001807f4f6e6c792061646d696e2063616e20706572666f726d2074686973206163746981526020017f6f6e00000000000000000000000000000000000000000000000000000000000081525060400191505060405180910390fd5b6001548211151515610985576040517f08c379a00000000000000000000000000000000000000000000000000000000081526004018080602001828103825260138152602001807f496e76616c69642065766964656e63652049440000000000000000000000000081525060200191505060405180910390fd5b8060008084815260200190815260200160002060010190805190602001906109ae929190610fce565b505050565b60015481565b600260009054906101000a900473ffffffffffffffffffffffffffffffffffffffff1673ffffffffffffffffffffffffffffffffffffffff163373ffffffffffffffffffffffffffffffffffffffff16141515610aa4576040517f08c379a00000000000000000000000000000000000000000000000000000000081526004018080602001828103825260228152602001807f4f6e6c792061646d696e2063616e20706572666f726d2074686973206163746981526020017f6f6e00000000000000000000000000000000000000000000000000000000000081525060400191505060405180910390fd5b6001548111151515610b1e576040517f08c379a00000000000000000000000000000000000000000000000000000000081526004018080602001828103825260138152602001807f496e76616c69642065766964656e63652049440000000000000000000000000081525060200191505060405180910390fd5b600080828152602001908152602001600020600080820160009055600182016000610b49919061104e565b6002820160006101000a81549073ffffffffffffffffffffffffffffffffffffffff02191690556002820160146101000a81549060ff02191690556003820160009055600482016000905550506001600081548092919060019003919050555050565b600260009054906101000a900473ffffffffffffffffffffffffffffffffffffffff1673ffffffffffffffffffffffffffffffffffffffff163373ffffffffffffffffffffffffffffffffffffffff16141515610c97576040517f08c379a00000000000000000000000000000000000000000000000000000000081526004018080602001828103825260228152602001807f4f6e6c792061646d696e2063616e20706572666f726d2074686973206163746981526020017f6f6e00000000000000000000000000000000000000000000000000000000000081525060400191505060405180910390fd5b6001548111151515610d11576040517f08c379a00000000000000000000000000000000000000000000000000000000081526004018080602001828103825260138152602001807f496e76616c69642065766964656e63652049440000000000000000000000000081525060200191505060405180910390fd5b600160008083815260200190815260200160002060020160146101000a81548160ff02191690831515021790555042600080838152602001908152602001600020600401819055507fdf904f4d3401cd26be9f1fd937f93cfd846bd034240d2bf6aa2584b8e9216b8b8142604051808381526020018281526020019250505060405180910390a150565b60606000806000806001548611151515610e1d576040517f08c379a00000000000000000000000000000000000000000000000000000000081526004018080602001828103825260138152602001807f496e76616c69642065766964656e63652049440000000000000000000000000081525060200191505060405180910390fd5b60008060008881526020019081526020016000209050806001018160020160009054906101000a900473ffffffffffffffffffffffffffffffffffffffff168260020160149054906101000a900460ff1683600301548460040154848054600181600116156101000203166002900480601f016020809104026020016040519081016040528092919081815260200182805460018160011615610100020316600290048015610f0d5780601f10610ee257610100808354040283529160200191610f0d565b820191906000526020600020905b815481529060010190602001808311610ef057829003601f168201915b50505050509450955095509550955095505091939590929450565b600260009054906101000a900473ffffffffffffffffffffffffffffffffffffffff1681565b828054600181600116156101000203166002900490600052602060002090601f016020900481019282601f10610f8f57805160ff1916838001178555610fbd565b82800160010185558215610fbd579182015b82811115610fbc578251825591602001919060010190610fa1565b5b509050610fca9190611096565b5090565b828054600181600116156101000203166002900490600052602060002090601f016020900481019282601f1061100f57805160ff191683800117855561103d565b8280016001018555821561103d579182015b8281111561103c578251825591602001919060010190611021565b5b50905061104a9190611096565b5090565b50805460018160011615610100020316600290046000825580601f106110745750611093565b601f0160209004906000526020600020908101906110929190611096565b5b50565b6110b891905b808211156110b457600081600090555060010161109c565b5090565b9056fea165627a7a7230582080a318c4b40eabdfb4bcdbcb12e743ef52457590461d8c36d2179ea93b233c350029",
  "source": "// SPDX-License-Identifier: MIT\r\npragma solidity >=0.4.22 <0.9.0;\r\n\r\ncontract EvidenceManagement {\r\n    struct Evidence {\r\n        uint id;\r\n        string description;\r\n        address owner;\r\n        bool verified;\r\n        uint addedTimestamp;\r\n        uint verifiedTimestamp;\r\n    }\r\n\r\n    mapping(uint => Evidence) public evidenceList;\r\n    uint public evidenceCount;\r\n    address public admin;\r\n\r\n    event EvidenceAdded(uint id, string description, address owner, uint addedTimestamp);\r\n    event EvidenceVerified(uint id, uint verifiedTimestamp);\r\n\r\n    constructor() public {\r\n        admin = msg.sender;\r\n    }\r\n\r\n    modifier onlyAdmin() {\r\n        require(msg.sender == admin, \"Only admin can perform this action\");\r\n        _;\r\n    }\r\n\r\n    function addEvidence(string memory _description) public {\r\n        evidenceList[evidenceCount] = Evidence(evidenceCount, _description, msg.sender, false, block.timestamp, 0);\r\n        evidenceCount++;\r\n        emit EvidenceAdded(evidenceCount, _description, msg.sender, block.timestamp);\r\n    }\r\n\r\n    function verifyEvidence(uint _id) public onlyAdmin {\r\n        require(_id <= evidenceCount, \"Invalid evidence ID\");\r\n        evidenceList[_id].verified = true;\r\n        evidenceList[_id].verifiedTimestamp = block.timestamp;\r\n        emit EvidenceVerified(_id, block.timestamp);\r\n    }\r\n\r\n    function getEvidence(uint _id) public view returns (string memory, address, bool, uint, uint) {\r\n        require(_id <= evidenceCount, \"Invalid evidence ID\");\r\n        Evidence storage evidence = evidenceList[_id];\r\n        return (evidence.description, evidence.owner, evidence.verified, evidence.addedTimestamp, evidence.verifiedTimestamp);\r\n    }\r\n\r\n    function updateEvidenceDescription(uint _id, string memory _newDescription) public onlyAdmin {\r\n        require(_id <= evidenceCount, \"Invalid evidence ID\");\r\n        evidenceList[_id].description = _newDescription;\r\n    }\r\n\r\n    function deleteEvidence(uint _id) public onlyAdmin {\r\n        require(_id <= evidenceCount, \"Invalid evidence ID\");\r\n        delete evidenceList[_id];\r\n        evidenceCount--;\r\n    }\r\n\r\n    // function getAllEvidences() public view returns (Evidence[] memory) {\r\n    //     Evidence[] memory allEvidences = new Evidence[](evidenceCount);\r\n    //     for (uint i = 1; i <= evidenceCount; i++) {\r\n    //         allEvidences[i - 1] = evidenceList[i];\r\n    //     }\r\n    //     return allEvidences;\r\n    // }\r\n}",
  "sourcePath": "C:\\Users\\dkadm\\OneDrive\\Desktop\\BCT\\Forensic-Evidence-Management-System\\contracts\\EvidenceManagement.sol",
  "compiler": {
    "name": "solc",
    "version": "0.5.1+commit.c8a2cb62.Emscripten.clang"
  },
  "schemaVersion": "3.4.16",
  "updatedAt": "2024-05-08T06:21:48.303Z",
  "networkType": "ethereum",
  "devdoc": {
    "methods": {}
  },
  "userdoc": {
    "methods": {}
  }
}