{
  "contractName": "SimpleStorage",
  "abi": [
    {
      "constant": true,
      "inputs": [],
      "name": "data",
      "outputs": [
        {
          "name": "",
          "type": "uint256"
        }
      ],
      "payable": false,
      "stateMutability": "view",
      "type": "function"
    }
  ],
  "bytecode": "0x608060405260008055348015601357600080fd5b506098806100226000396000f3fe6080604052600436106039576000357c01000000000000000000000000000000000000000000000000000000009004806373d4a13a14603e575b600080fd5b348015604957600080fd5b5060506066565b6040518082815260200191505060405180910390f35b6000548156fea165627a7a72305820c2734d65f54278e7d191bd33d6617c2846d564a97b1f73216852f8488f1c202d0029",
  "source": "// SPDX-License-Identifier: MIT\r\npragma solidity >=0.4.22 <0.9.0;\r\n\r\ncontract SimpleStorage {\r\n    uint256 public data = 0;\r\n\r\n    // function setData(uint256 data) public {\r\n    //     _data = data;\r\n    // }\r\n\r\n    // function getData() public view returns (uint256) {\r\n    //     return _data;\r\n    // }\r\n}",
  "sourcePath": "C:\\Users\\dkadm\\OneDrive\\Desktop\\BCT\\Forensic-Evidence-Management-System\\contracts\\SimpleStorage.sol",
  "compiler": {
    "name": "solc",
    "version": "0.5.1+commit.c8a2cb62.Emscripten.clang"
  },
  "schemaVersion": "3.4.16",
  "updatedAt": "2024-05-08T06:21:47.530Z",
  "devdoc": {
    "methods": {}
  },
  "userdoc": {
    "methods": {}
  }
}